:020000040000FA
:060000000A128A11122809
:10000800FE00030E83120313B2000408B3000A08AB
:10001800B4007F08B5000A128A11A3290A128A11AE
:1000280015280A128A11EE270A128A11D2000A121A
:100038008A11EF270A128A11D3000A128A11F027AF
:100048000A128A11D4000A128A11F1270A128A1197
:10005800D5000A128A11F2270A128A11D6000A124A
:100068008A11F3270A128A11D7008313A03084005B
:10007800BE300A128A11D6270A128A11413084002A
:1000880052300A128A11D6270A128A1183010A12DB
:100098008A114E280730831603138500073086001F
:1000A8008701880189010A128A11E6270A128A1132
:1000B8000A128A11B1270A128A110A128A11BB2759
:1000C8000A128A110A128A11DE270A128A110A12E2
:1000D8008A11EA230A128A1146308312031357063B
:1000E800031977287828FE2886187B287C289E28DC
:1000F800CF01861C802881287D2853305706031D90
:10010800862887289928003053022830031952027C
:10011800031C8F28902899288B130530D2020030B1
:10012800031CD303D3028B17BE285330FF007F086C
:10013800D700BE280619A128A228BE28CF01061D6F
:10014800A628A728A32853305706031DAC28AD2896
:100158009928003053024730031952020318B52872
:10016800B62899288B130530D2070318D30A003014
:10017800D30797285408520283160313CB0083121F
:1001880003135508031C550A530283160313CC00A6
:100198004C08803AFF0080307F02031DD5280530C7
:1001A8004B02031CD828D928E4280A128A118F2761
:1001B8000A128A110A128A1127270A128A1170282C
:1001C800831603134C08803AFF007F307F02031D1B
:1001D800EF28FC304B020318F228F328FE280A12F5
:1001E8008A1107270A128A110A128A119B270A12F2
:1001F8008A1170280A128A1107270A128A110A120C
:100208008A1127270A128A1170280A128A111228BD
:100218009529203085000C300A128A1193230A127E
:100228008A118312031356058800CD01CD0AA2292D
:100238001030850053305706031D232924293C29F3
:100248000A30F0000030F1005308F3005208F200C1
:100258000A128A116E260A128A1170080A128A1165
:1002680093230A128A11831203135605880053290F
:100278000A30F0000030F1005508F3005408F2008D
:100288000A128A116E260A128A1170080A128A1135
:1002980093230A128A118312031356058800023029
:1002A800FF007F08CD00A22908308500533057068B
:1002B800031D5F2960297A290A30A2000030A300B3
:1002C8005308A5005208A4000A128A1126250A120A
:1002D8008A118312031322080A128A1193230A121D
:1002E8008A11831203135605880093290A30A20045
:1002F8000030A3005508A5005408A4000A128A116A
:1003080026250A128A118312031322080A128A1157
:1003180093230A128A118312031356058800CD010C
:10032800A229831203134D08003A03190D29013A33
:1003380003191C29033A03195829A22908008B1C00
:10034800A629A729C2294F3057060319AC29AD2978
:10035800B829533057060319B229B329B8294F30A1
:10036800B6000030B700BC294630B6000030B700F0
:100378003608FF007F08D7008B10052A463057063D
:100388000319C729C829042A4F305706031DCD2948
:10039800CE29D229FF30FF007F08D6000B1DD529B2
:1003A800D629E0290A128A110C210A128A113D3035
:1003B8008312031381000B110C1CE329E429052A7D
:1003C8000A128A11E0220A128A110130FF007F08FE
:1003D80083120313CE070A304E06031DF429F529AC
:1003E800FB29CE010A128A11B2250A128A110B3092
:1003F800831203138F00DC308E000C101014052AB2
:1004080088013508FF0034088A0033088400320E5A
:100418008300FE0E7E0E0900831603134008C100F8
:10042800C2014108C6004208C7003F080139FF0061
:100438007F08C3003E08FF007F08C400C5010A12F8
:100448008A1159270A128A118316031343080319BC
:100458002E2A2F2A362AA2300A128A11F2250A12C7
:100468008A113C2AA0300A128A11F2250A128A112E
:100478008316031344080A128A11F2250A128A11F4
:100488008316031346080A128A11F2250A128A11E2
:100498000A128A1147270A128A110130FF007F08C1
:1004A80083160313C5073F0883120313BD00831681
:1004B80003133E0883120313BC000A128A113A235D
:1004C8000A128A1183160313C100C20147084206A3
:1004D800031D702A460841060319732A742A7A2ACA
:1004E8000A304502031C792A7A2A232A08007B0845
:1004F800FC00FD017C0883120313A3007D08A400FF
:100508007A080139FF007F08A0007908FF007F08FA
:10051800A100A2010A128A117D270A128A118312E8
:10052800031320080319992A9A2AA12AA2300A1229
:100538008A1130260A128A11A72AA0300A128A11B3
:1005480030260A128A118312031321080A128A110B
:1005580030260A128A118312031323080A128A11F9
:1005680030260A128A110A128A116B270A128A1176
:100578000130FF007F0883120313A2077A08F500F1
:100588007908F4000A128A11D9240A128A11FC0087
:10059800FD018312031324087D06031DD52A2308B1
:1005A8007C060319D82AD92ADF2A0A302202031C1A
:1005B800DE2ADF2A8E2A08000A128A11F4270A1274
:1005C8008A11143083120313A2000030A3000230F2
:1005D8000A128A116C250A128A117108FB00700828
:1005E800FA000A30FC000030FD000A128A11DC26ED
:1005F8000A128A117B0883120313A5007A08A40043
:100608000A128A1126250A128A11831203134B082B
:10061800B1003107A03E8400220883138000840AB9
:10062800230880000130CB070318CC0A0030CC0720
:100638000A128A11A8260A128A11831203132A0899
:10064800D5002908D4004C08803AFF0080307F028A
:10065800031D302B0A304B020318332B342B352B58
:10066800392B83120313CB01CC0108008312031327
:100678003D080139FF007F08C0003C08FF007F08E3
:10068800BF000A128A1159270A128A11831203130A
:1006980040080319502B512B582BA2300A128A11EB
:1006A800F2250A128A115E2BA0300A128A11F2254D
:1006B8000A128A11831203133F080A128A11F225BB
:1006C8000A128A110A128A1159270A128A118312E8
:1006D800031340080319712B722B792BA3300A12CC
:1006E8008A11F2250A128A117F2BA1300A128A1167
:1006F800F2250A128A1101300A128A118B240A1271
:100708008A11FF007F0883120313BE000A128A11A0
:1007180047270A128A11831203133E080800F000C3
:10072800B72B3F30E92B0630E92B5B30E92B4F30F4
:10073800E92B6630E92B6D30E92B7D30E92B07304A
:10074800E92B7F30E92B6F30E92B7730E92B7C30B0
:10075800E92B5830E92B5E30E92B7930E92B7130E1
:10076800E92B0030E92B7008003A0319952B013A60
:100778000319972B033A0319992B013A03199B2B59
:10078800073A03199D2B013A03199F2B033A0319C2
:10079800A12B013A0319A32B0F3A0319A52B013AF0
:1007A8000319A72B033A0319A92B013A0319AB2BF9
:1007B800073A0319AD2B013A0319AF2B033A031972
:1007C800B12B013A0319B32BB52B08000B30831258
:1007D8000313BC000030BD000A128A113A230A1222
:1007E8008A11FF007F0883160313CA0033304A06B4
:1007F800031DFF2B002C1A2C0A3083120313BC0094
:100808000030BD000A128A113A230A128A1183168F
:100818000313C800C901480883120313D2008316C2
:100828000313490883120313D3003A2C0A30BE007D
:100838000030BF00831203135208FF007F0883169D
:100848000313C0000A128A1110220A128A110B30EF
:1008580083160313BE000030BF003330FF007F084B
:10086800C0000A128A1110220A128A110800F10027
:10087800F2018312031387118316031307168312D9
:1008880003130716F30187150A128A11CD270A12D6
:100898008A1183120313070E0139F0007308073C0D
:1008A800013E582C0310F00DFF3E031D562C700816
:1008B800FF007F08F20487110130FF007F08F3076B
:1008C80008307302031C692C6A2C472C8316031307
:1008D800071271080319712C722C762C83120313DA
:1008E8000712792C8312031307160A128A11CD27CF
:1008F8000A128A118312031387150A128A11CD2747
:100908000A128A11831203138711720808008312CE
:100918000313B900BA01871183160313071683124C
:1009280003130716BB0187150A128A11C4270A1276
:100938008A1183120313070E0139B8003B08073CDC
:10094800013EA82C0310B80DFF3E031DA62C380845
:10095800FF007F08BA0487110130FF007F08BB073A
:1009680008303B02031CB92CBA2C972C83160313AE
:1009780007128312031339080319C32CC42CC62C7D
:100988000712C72C07160A128A11C4270A128A11DD
:100998008312031387150A128A11C4270A128A11AF
:1009A8008312031387113A08080075080139FF00FC
:1009B8007F08F8007408FF007F08F7000A128A1100
:1009C8007D270A128A1178080319EB2CEC2CF32CDA
:1009D800A2300A128A1130260A128A11F92CA03084
:1009E8000A128A1130260A128A1177080A128A1105
:1009F80030260A128A110A128A117D270A128A11D0
:100A080078080319082D092D102DA3300A128A1110
:100A180030260A128A11162DA1300A128A113026A0
:100A28000A128A1101300A128A113B240A128A1109
:100A3800FF007F08F6000A128A116B270A128A1132
:100A48007608080083120313A601A70122082304CD
:100A580003192F2D302D672DA801A80A3E2D01302E
:100A68000310A20DA30DFF3E031D342D0130FF001E
:100A78007F08A807A31F412D422D332D01300310F5
:100A8800A60DA70DFF3E031D432D23082502031DB8
:100A98004F2D22082402031C522D532D5A2D2208B3
:100AA800A4022308031CA503A50226140130031081
:100AB800A30CA20CFF3E031D5B2D0130A802031DF1
:100AC800662D672D422D2708A3002608A2000800DE
:100AD800F9007D2D0130831203139F00882D093002
:100AE800831203139F00882D1130831203139F0074
:100AF800882D7908003A03196E2D013A0319732DD0
:100B0800033A0319782D882D831203131F151F1913
:100B18008E2D8F2D8B2D831603131E08F2000630A1
:100B28000310F20CFF3E031D942D7208F300F4012C
:100B3800831203131E08F500F6010310F50DF60DD8
:100B48000310F50DF60D73087504F70074087604A4
:100B5800F8007708F0007808F10008008312031302
:100B680051080319B82DB92DBD2D4030FF007F085D
:100B7800860653305706031DC22DC32DF12D560A84
:100B88000319C72DC82DCD2DFF30A5000030A600B4
:100B9800CF2DA501A6012508FF007F08D60001304A
:100BA800FF007F08CF070A304F06031DDC2DDD2D1F
:100BB800F12D0A30F9000030FA005208FF007F08D2
:100BC800FB000A128A117B220A128A11831203136C
:100BD800CF014F30FF007F08D700080083120313AE
:100BE800BA008711BB013A08B8003B08073C013E30
:100BF800FF2D0310B80CFF3E031DFD2D38080139E9
:100C0800B900B90E07083906EF3939068700871584
:100C18000A128A11C4270A128A1183120313871130
:100C28000130FF007F08BB0708303B02031C1D2E64
:100C38001E2EF72D07160A128A11C4270A128A11C6
:100C48008312031387150A128A11C4270A128A11FC
:100C58008312031387110800F2008312031387110C
:100C6800F3017208F0007308073C013E3D2E0310A3
:100C7800F00CFF3E031D3B2E70080139F100F10E08
:100C880007087106EF397106870087150A128A115D
:100C9800CD270A128A118312031387110130FF002E
:100CA8007F08F30708307302031C5B2E5C2E352E79
:100CB80007160A128A11CD270A128A118312031302
:100CC80087150A128A11CD270A128A118312031373
:100CD80087110800700871040319732E742EA32E4F
:100CE800F401F40A822E01300310F00DF10DFF3EDD
:100CF800031D782E0130FF007F08F407F11F852EB1
:100D0800862E772E71087302031D8C2E70087202CE
:100D1800031C8F2E902E962E7008F2027108031C69
:100D2800F303F30201300310F10CF00CFF3E031D36
:100D3800972E0130F402031DA22EA32E862E7308CF
:100D4800F1007208F000080083120313AE01AF012E
:100D5800B0013008AB002B07A03E840083130008C5
:100D6800AC00840A0008AD002C08AE070318AF0ACF
:100D78002D08AF070130FF007F08B0070A303002A6
:100D8800031CC72EC82EAD2E0A30A2000030A300C7
:100D98002F08A5002E08A4000A128A1126250A1277
:100DA8008A11831203132308AA002208A900080045
:100DB80083120313A001A1017A1CE32EE42EEC2E6A
:100DC8007C0883120313A0070318A10A7D08A10752
:100DD80001300310FC0DFD0DFF3E031DED2E01300B
:100DE8000310FB0CFA0CFF3E031DF42E7A087B045B
:100DF800031DFF2E002FE02E831203132108FB0092
:100E08002008FA0008004630831203135706031916
:100E18000E2F0F2F1E2F55085306031D152F54088C
:100E280052060319182F192F1E2F500803191D2FAA
:100E38001E2F262F8712D1015008031D242F252F7E
:100E4800262F06130800463083120313570603198A
:100E58002E2F2F2F3E2F55085306031D352F5408CC
:100E680052060319382F392F3E2F510803193D2FE9
:100E78003E2F462F0711D0015108031D442F452F3F
:100E8800462F0613080083120313871507120A1248
:100E98008A11C4270A128A118312031307160A1229
:100EA8008A11C4270A128A110800831203138715AE
:100EB80007160A128A11C4270A128A118312031309
:100EC80007120A128A11C4270A128A11080083120B
:100ED8000313871507120A128A11CD270A128A11DD
:100EE8008312031307160A128A11CD270A128A11D0
:100EF800080083120313871507160A128A11CD27D3
:100F08000A128A118312031307120A128A11CD27B3
:100F18000A128A110800831203135108031D952F22
:100F2800962F9A2F8716D101D10A06170800831227
:100F380003135008031DA12FA22FA62F0715D001B8
:100F4800D00A0617080007308A000408840A8207B6
:100F580000340134023404340034831203131016AD
:100F68009016DC308E000B308F001014080007300C
:100F78008316031381003D30831203138100080098
:100F88000000000000000000000000000000000059
:100F98000800000000000000000000000000000041
:100FA8000000080064008001840A04060319003464
:100FB8000406D72F8B170B178B16831603130C14E5
:100FC8000B160800831603130712831203138715E1
:100FD800071608003C34003437340034FF344634F4
:0A0FE8000230831603139F00080077
:02400E00BA3FB7
:00000001FF
