:020000040000FA
:060000000A128A11122809
:10000800FE00030E83120313B2000408B3000A08AB
:10001800B4007F08B5000A128A11A2290A128A11AF
:1000280015280A128A11DB270A128A11D2000A122D
:100038008A11DC270A128A11D3000A128A11DD27D5
:100048000A128A11D4000A128A11DE270A128A11AA
:10005800D5000A128A11DF270A128A11D6000A125D
:100068008A11E0270A128A11D7008313A03084006E
:10007800B4300A128A11C3270A128A11CB01CC01A3
:10008800CD01CE01CF01D001D10183010A128A111D
:100098004D28073083160313850007308600870133
:1000A800880189010A128A11D3270A128A110A12B1
:1000B8008A119E270A128A110A128A11A8270A127F
:1000C8008A110A128A11CB270A128A110A128A1176
:1000D80033240A128A114630831203135706031970
:1000E80076287728FD2886187A287B289D28CF012E
:1000F800861C7F2880287C2853305706031D8528B6
:100108008628982800305302283003195202031C0D
:100118008E288F2898288B130530D2020030031CB4
:10012800D303D3028B17BD285330FF007F08D700B5
:10013800BD280619A028A128BD28CF01061DA5287D
:10014800A628A22853305706031DAB28AC289828A8
:10015800003053024730031952020318B428B52857
:1001680098288B130530D2070318D30A0030D30719
:1001780096285408520283160313B70083120313F8
:100188005508031C550A530283160313B800380890
:10019800803AFF0080307F02031DD42805303702E3
:1001A800031CD728D828E3280A128A1186270A129E
:1001B8008A110A128A111E270A128A116F288316B9
:1001C80003133808803AFF007F307F02031DEE28B2
:1001D800FC3037020318F128F228FD280A128A1188
:1001E800FE260A128A110A128A1192270A128A1105
:1001F8006F280A128A11FE260A128A110A128A1117
:100208001E270A128A116F280A128A1112289429A5
:10021800203085000C300A128A118C230A128A11A8
:100228008312031356058800CD01CD0AA129103089
:10023800850053305706031D222923293B290A30FC
:10024800F0000030F1005308F3005208F2000A12DF
:100258008A1165260A128A1170080A128A118C23DB
:100268000A128A11831203135605880052290A308C
:10027800F0000030F1005508F3005408F2000A12AB
:100288008A1165260A128A1170080A128A118C23AB
:100298000A128A1183120313560588000230FF00E0
:1002A8007F08CD00A1290830850053305706031D6B
:1002B8005E295F2979290A30A2000030A30053087B
:1002C800A5005208A4000A128A111D250A128A11D3
:1002D8008312031322080A128A118C230A128A1124
:1002E800831203135605880092290A30A2000030B1
:1002F800A3005508A5005408A4000A128A111D2558
:100308000A128A118312031322080A128A118C23F3
:100318000A128A118312031356058800CD01A129F8
:10032800831203134D08003A03190C29013A0319E3
:100338001B29033A03195729A12908008B1CA52951
:10034800A629C1294F3057060319AB29AC29B7296B
:10035800533057060319B129B229B7294F30B600CF
:100368000030B700BB294630B6000030B700360869
:10037800FF007F08D7008B10042A46305706031960
:10038800C629C729032A4F305706031DCC29CD2972
:10039800D129FF30FF007F08D6000B1DD429D529AD
:1003A800DF290A128A110B210A128A113D308312A1
:1003B800031381000B110C1CE229E329042A0A12F9
:1003C8008A11D9220A128A110130FF007F0883128C
:1003D8000313CE070A304E06031DF329F429FA2920
:1003E800CE010A128A11A9250A128A110B3083122A
:1003F80003138F00DC308E000C101014042A8801BF
:100408003508FF0034088A0033088400320E830060
:10041800FE0E7E0E0900831203134308C400C501B3
:100428004408C9004508CA0042080139FF007F088E
:10043800C6004108FF007F08C700C8010A128A11D8
:1004480050270A128A1183120313460803192D2A0A
:100458002E2A352AA2300A128A11E9250A128A118F
:100468003B2AA0300A128A11E9250A128A1183123E
:10047800031347080A128A11E9250A128A118312FE
:10048800031349080A128A11E9250A128A110A1265
:100498008A113E270A128A110130FF007F08831251
:1004A8000313C8074208BD004108BC000A128A119C
:1004B80033230A128A1183120313C400C5014A08A0
:1004C8004506031D692A4908440603196C2A6D2A42
:1004D800732A0A304802031C722A732A222A080047
:1004E8007B08FC00FD017C0883120313A3007D0830
:1004F800A4007A080139FF007F08A0007908FF00EE
:100508007F08A100A2010A128A1174270A128A110F
:100518008312031320080319922A932A9A2AA230D5
:100528000A128A1127260A128A11A02AA0300A1252
:100538008A1127260A128A118312031321080A1224
:100548008A1127260A128A118312031323080A1212
:100558008A1127260A128A110A128A1162270A1298
:100568008A110130FF007F0883120313A2077A085B
:10057800F5007908F4000A128A11D0240A128A11A7
:10058800FC00FD018312031324087D06031DCE2AF7
:1005980023087C060319D12AD22AD82A0A30220233
:1005A800031CD72AD82A872A08000A128A11E127A9
:1005B8000A128A11143083120313A2000030A30018
:1005C80002300A128A1163250A128A117108FB0087
:1005D8007008FA000A30FC000030FD000A128A1187
:1005E800D3260A128A117B0883120313A5007A08FE
:1005F800A4000A128A111D250A128A1183120313F4
:100608004B08B1003107A03E840022088313800004
:10061800840A230880000130CB070318CC0A003075
:10062800CC070A128A119F260A128A118312031311
:100638002A08D5002908D4004C08803AFF008030E9
:100648007F02031D292B0A304B0203182C2B2D2B5C
:100658002E2B322B83120313CB01CC0108008312FB
:1006680003133D080139FF007F08C0003C08FF0064
:100678007F08BF000A128A1150270A128A118312B2
:10068800031340080319492B4A2B512BA2300A1295
:100698008A11E9250A128A11572BA0300A128A11E9
:1006A800E9250A128A11831203133F080A128A11D4
:1006B800E9250A128A110A128A1150270A128A1188
:1006C80083120313400803196A2B6B2B722BA33078
:1006D8000A128A11E9250A128A11782BA1300A1206
:1006E8008A11E9250A128A1101300A128A11822414
:1006F8000A128A11FF007F0883120313BE000A1230
:100708008A113E270A128A11831203133E08080031
:10071800F000B02B3F30E22B0630E22B5B30E22BAF
:100728004F30E22B6630E22B6D30E22B7D30E22B2E
:100738000730E22B7F30E22B6F30E22B7730E22B51
:100748007C30E22B5830E22B5E30E22B7930E22B02
:100758007130E22B0030E22B7008003A03198E2B1F
:10076800013A0319902B033A0319922B013A031902
:10077800942B073A0319962B013A0319982B033A3D
:1007880003199A2B013A03199C2B0F3A03199E2B34
:10079800013A0319A02B033A0319A22B013A0319B2
:1007A800A42B073A0319A62B013A0319A82B033ADD
:1007B8000319AA2B013A0319AC2BAE2B0800F10040
:1007C800F20183120313871183160313071683128A
:1007D80003130716F30187150A128A11BA270A129A
:1007E8008A1183120313070E0139F0007308073CBE
:1007F800013E002C0310F00DFF3E031DFE2B700878
:10080800FF007F08F20487110130FF007F08F3071B
:1008180008307302031C112C122CEF2B83160313C0
:10082800071271080319192C1A2C1E2C8312031392
:100838000712212C8312031307160A128A11BA27EA
:100848000A128A118312031387150A128A11BA270A
:100858000A128A11831203138711720808000B30D9
:1008680083120313BC000030BD000A128A1133231F
:100878000A128A11FF007F0883160313B60033306B
:100888003606031D482C492C632C0A3083120313A7
:10089800BC000030BD000A128A1133230A128A11E3
:1008A80083160313B400B501340883120313D2006E
:1008B80083160313350883120313D300812C0A30DF
:1008C80083120313C1000030C2005208FF007F08E2
:1008D800C3000A128A110F220A128A110B308312DE
:1008E8000313C1000030C2003330FF007F08C3008B
:1008F8000A128A110F220A128A110800831203139E
:10090800B900BA018711831603130716831203135C
:100918000716BB0187150A128A11B1270A128A1114
:1009280083120313070E0139B8003B08073C013E48
:100938009F2C0310B80DFF3E031D9D2C3808FF00A7
:100948007F08BA0487110130FF007F08BB07083011
:100958003B02031CB02CB12C8E2C831603130712F8
:100968008312031339080319BA2CBB2CBD2C0712A8
:10097800BE2C07160A128A11B1270A128A1183128D
:10098800031387150A128A11B1270A128A118312D2
:10099800031387113A08080075080139FF007F081A
:1009A800F8007408FF007F08F7000A128A117427FC
:1009B8000A128A1178080319E22CE32CEA2CA230D7
:1009C8000A128A1127260A128A11F02CA0300A125C
:1009D8008A1127260A128A1177080A128A112726ED
:1009E8000A128A110A128A1174270A128A117808BF
:1009F8000319FF2C002D072DA3300A128A11272670
:100A08000A128A110D2DA1300A128A1127260A12FC
:100A18008A1101300A128A11E3230A128A11FF008F
:100A28007F08F6000A128A1162270A128A117608CC
:100A3800080083120313A601A7012208230403193F
:100A4800262D272D5E2DA801A80A352D013003106B
:100A5800A20DA30DFF3E031D2B2D0130FF007F08C3
:100A6800A807A31F382D392D2A2D01300310A60DF4
:100A7800A70DFF3E031D3A2D23082502031D462D11
:100A880022082402031C492D4A2D512D2208A402B4
:100A98002308031CA503A502261401300310A30C88
:100AA800A20CFF3E031D522D0130A802031D5D2D2F
:100AB8005E2D392D2708A3002608A2000800F9009A
:100AC800742D0130831203139F007F2D0930831288
:100AD80003139F007F2D1130831203139F007F2D76
:100AE8007908003A0319652D013A03196A2D033A6A
:100AF80003196F2D7F2D831203131F151F19852DC1
:100B0800862D822D831603131E08F200063003106B
:100B1800F20CFF3E031D8B2D7208F300F4018312C3
:100B280003131E08F500F6010310F50DF60D03106A
:100B3800F50DF60D73087504F70074087604F800CF
:100B48007708F0007808F1000800831203135108B1
:100B58000319AF2DB02DB42D4030FF007F08860655
:100B680053305706031DB92DBA2DE82D560A03191F
:100B7800BE2DBF2DC42DFF30A5000030A600C62D08
:100B8800A501A6012508FF007F08D6000130FF0057
:100B98007F08CF070A304F06031DD32DD42DE82D2B
:100BA8000A30F9000030FA005208FF007F08FB0005
:100BB8000A128A1174220A128A1183120313CF01AE
:100BC8004F30FF007F08D700080083120313BA00D4
:100BD8008711BB013A08B8003B08073C013EF62DD7
:100BE8000310B80CFF3E031DF42D38080139B90075
:100BF800B90E07083906EF393906870087150A1232
:100C08008A11B1270A128A1183120313871101303E
:100C1800FF007F08BB0708303B02031C142E152E6B
:100C2800EE2D07160A128A11B1270A128A118312A9
:100C3800031387150A128A11B1270A128A1183121F
:100C4800031387110800F200831203138711F301BD
:100C58007208F0007308073C013E342E0310F00CB4
:100C6800FF3E031D322E70080139F100F10E07080E
:100C78007106EF397106870087150A128A11BA279B
:100C88000A128A118312031387110130FF007F08AB
:100C9800F30708307302031C522E532E2C2E07160E
:100CA8000A128A11BA270A128A11831203138715A6
:100CB8000A128A11BA270A128A118312031387119A
:100CC80008007008710403196A2E6B2E9A2EF4011D
:100CD800F40A792E01300310F00DF10DFF3E031DCB
:100CE8006F2E0130FF007F08F407F11F7C2E7D2E48
:100CF8006E2E71087302031D832E70087202031C86
:100D0800862E872E8D2E7008F2027108031CF303BD
:100D1800F30201300310F10CF00CFF3E031D8E2E80
:100D28000130F402031D992E9A2E7D2E7308F100CE
:100D38007208F000080083120313AE01AF01B0017E
:100D48003008AB002B07A03E840083130008AC00DA
:100D5800840A0008AD002C08AE070318AF0A2D0856
:100D6800AF070130FF007F08B0070A303002031CCC
:100D7800BE2EBF2EA42E0A30A2000030A3002F08DA
:100D8800A5002E08A4000A128A111D250A128A112C
:100D9800831203132308AA002208A900080083125B
:100DA8000313A001A1017A1CDA2EDB2EE32E7C08A6
:100DB80083120313A0070318A10A7D08A1070130B5
:100DC8000310FC0DFD0DFF3E031DE42E0130031042
:100DD800FB0CFA0CFF3E031DEB2E7A087B04031D67
:100DE800F62EF72ED72E831203132108FB002008B6
:100DF800FA00080046308312031357060319052F1B
:100E0800062F152F55085306031D0C2F540852069C
:100E180003190F2F102F152F50080319142F152FF2
:100E28001D2F8712D1015008031D1B2F1C2F1D2FAA
:100E38000613080046308312031357060319252F9B
:100E4800262F352F55085306031D2C2F54085206FC
:100E580003192F2F302F352F51080319342F352F11
:100E68003D2F0711D0015108031D3B2F3C2F3D2F6B
:100E78000613080083120313871507120A128A1132
:100E8800B1270A128A118312031307160A128A114C
:100E9800B1270A128A11080083120313871507164F
:100EA8000A128A11B1270A128A1183120313071230
:100EB8000A128A11B1270A128A1108008312031331
:100EC800871507120A128A11BA270A128A11831281
:100ED800031307160A128A11BA270A128A11080080
:100EE80083120313871507160A128A11BA270A12E2
:100EF8008A118312031307120A128A11BA270A12D7
:100F08008A110800831203135108031D8C2F8D2F9B
:100F1800912F8716D101D10A0617080083120313EF
:100F28005008031D982F992F9D2F0715D001D00A1F
:100F3800061708008312031310169016DC308E0073
:100F48000B308F001014080007308316031381003C
:100F58003D308312031381000800000000000000E8
:100F68000000000000000000000008000000000071
:100F780000000000000000000000000008006400FD
:100F88008001840A0406031900340406C42F8B1751
:100F98000B178B16831603130C140B1608008316F5
:100FA80003130712831203138715071608003C342E
:100FB800003437340034FF344634023083160313C8
:040FC8009F0008007E
:02400E00BA3FB7
:00000001FF
