:020000040000FA
:060000000A128A11122809
:10000800FE00030EF8000408F9000A08FA0083123B
:1000180003137F08FB000A128A11FC290A128A11AD
:1000280015280A128A115F230A128A11C9000A12B6
:100038008A1160230A128A11CA000A128A116123DE
:100048000A128A11CB0083132030840041300A122F
:100058008A1143230A128A11FC01FD0183010A1245
:100068008A11F628F501F11F3A283B284228F009A1
:10007800F109F00A0319F10AF501F50AF31F4528F9
:1000880046284F28F209F309F20A0319F30A013046
:10009800FF007F08F506F601F701700871040319DF
:1000A800562857288E28F401F40A652801300310D1
:1000B800F00DF10DFF3E031D5B280130FF007F08A6
:1000C800F407F11F682869285A2801300310F60D33
:1000D800F70DFF3E031D6A2871087302031D762879
:1000E80070087202031C79287A2881287008F202A5
:1000F8007108031CF303F302761401300310F10CAA
:10010800F00CFF3E031D82280130F402031D8D28E8
:100118008E28692875080319922893289828F609C3
:10012800F709F60A0319F70A7708F1007608F000CC
:100138000800F501F31FA128A228A928F209F3094C
:10014800F20A0319F30AF501F50AF11FAC28AD28E4
:10015800B228F009F109F00A0319F10A70087104CC
:100168000319B728B828E728F401F40AC62801308B
:100178000310F00DF10DFF3E031DBC280130FF00F8
:100188007F08F407F11FC928CA28BB287108730221
:10019800031DD02870087202031CD328D428DA283B
:1001A8007008F2027108031CF303F3020130031014
:1001B800F10CF00CFF3E031DDB280130F402031D97
:1001C800E628E728CA2875080319EB28EC28F1283F
:1001D800F209F309F20A0319F30A7308F100720825
:1001E800F0000800C3308316031385000130860031
:1001F80001308700880189010A128A114E210A12EA
:100208008A110A128A114B230A128A110A128A11B8
:1002180022230A128A110A128A113A230A128A110F
:100228000A128A1159230A128A110A128A113023D2
:100238000A128A110F30831603139F0007309C009F
:100248000330860001300A128A11C1220A128A116B
:1002580080300A128A11C1220A128A1105300A1244
:100268008A1175220A128A11C0300A128A11C12213
:100278000A128A1112300A128A1175220A128A1178
:1002880083120313861849294A2944294A290A123C
:100298008A11122883120313891009111430C1001E
:1002A8000030C2000A128A114D220A128A118312E2
:1002B8000313891438300A128A11C1220A128A11CA
:1002C800053083120313C1000030C2000A128A11DC
:1002D8004D220A128A1138300A128A11C1220A12D2
:1002E8008A11013083120313C1000030C2000A12C0
:1002F8008A114D220A128A1138300A128A11C12233
:100308000A128A1108300A128A11C1220A128A11A5
:100318000F300A128A11C1220A128A1101300A12F8
:100328008A11C1220A128A1138300A128A11C1228E
:100338000A128A1180300A128A11C1220A128A11FD
:100348000800F000C9293F30FB290630FB295B3043
:10035800FB294F30FB296630FB296D30FB297D30A6
:10036800FB290730FB297F30FB296F30FB297730C9
:10037800FB297C30FB295830FB295E30FB2979307A
:10038800FB297130FB290030FB297008003A03195A
:10039800A729013A0319A929033A0319AB29013AF4
:1003A8000319AD29073A0319AF29013A0319B129ED
:1003B800033A0319B329013A0319B5290F3A031966
:1003C800B729013A0319B929033A0319BB29013A94
:1003D8000319BD29073A0319BF29013A0319C1298D
:1003E800033A0319C329013A0319C529C729080083
:1003F8007D080319002A012A1A2A103085000A30BC
:10040800F0000030F1004A08F3004908F2000A122F
:100418008A119D200A128A1170080A128A11A521D0
:100428000A128A11831203138800322A08308500C1
:100438000A30F0000030F1004A08F3004908F200E1
:100448000A128A1136200A128A1170080A128A11B1
:10045800A5210A128A118312031388007D08031943
:10046800362A382A0130392A0030FF007F08FD007B
:100478000B308F00DC308E000C1010147B08FF004E
:100488007A088A0079088400780E8300FE0E7E0EB2
:10049800090083120313C301C4016A2AC5010000BD
:1004A80000000000000000000130FF007F088312F8
:1004B8000313C507C8304502031C632A642A532A5C
:1004C8000130C3070318C40A0030C40742084402B5
:1004D800031D702A41084302031C732A742A522AF6
:1004E800080083120313C800C7018D2A470848076C
:1004F80084000A128A1100230A128A110A128A1128
:100508009B220A128A110130FF007F08831203130D
:10051800C7074708480784000A128A1100230A12ED
:100528008A11003A031D992A9A2A7A2A0800831206
:100538000313C600891446080A128A1153230A12A3
:100548008A118312031309150330C1000030C20059
:100558000A128A114D220A128A1183120313891072
:100568000330C1000030C2000A128A114D220A125B
:100578008A11831203138914080083120313C60017
:10058800891446080A128A1153230A128A118312FF
:10059800031309110330C1000030C2000A128A1186
:1005A8004D220A128A118312031389100330C100E5
:1005B8000030C2000A128A114D220A128A118312CF
:0605C80003138914080072
:1006000003308A000408840A82070034013402346B
:1006100004340034773465346C3463346F346D34AF
:10062000653420346D34663472347334003450349D
:1006300072346534733473342E342034523442347B
:100640003134003467308316031399001813981659
:100650001812181583120313981718131816080088
:10066000DC30831203138E000B308F0010169016AF
:10067000101408000230831603139F0041308312C8
:1006800003139F00080064008001840A0406031914
:1006900000340406442B831603130712831203133A
:1006A00087150716080083120313C100410888004C
:1006B00008008B170B17831603130C1408003C3427
:0406C0000034463488
:02400E00BA3FB7
:1042000000001100220033004400550066007700D2
:1042100088009900AA00BB00CC00DD00EE00FF0082
:00000001FF
